:10000000C6C00000DFC00000DDC00000DBC0000093
:10001000D9C00000D7C00000D5C00000D3C0000088
:10002000D1C00000CFC00000C1C20000F6C2000075
:10003000C9C00000C7C00000C5C00000C3C00000A8
:10004000C1C00000BFC00000BDC00000BBC00000B8
:10005000B9C00000B7C00000B5C0000090C10000EA
:10006000B1C00000AFC00000ADC00000ABC00000D8
:10007000A9C00000A7C00000A5C00000A3C00000E8
:10008000A1C000009FC000009DC000009BC00000F8
:1000900099C0000097C0000095C0000093C0000008
:1000A00091C000008FC000008DC000000001000062
:1000B00068011200020000230129002200004C0107
:1000C0001C00210000350109000300001F0104018C
:1000D0000309040D011002030904DD002E2E035450
:1000E00000650065006E0073007900200052006119
:1000F00000770020004800490044002000450078B7
:100100000061006D0070006C006500000010034D80
:1001100000660067004E0061006D0065000000048D
:1001200003090409022900010100C032090400008A
:100130000203000000092111010001221C00070533
:1001400081034000020705020340000806ABFF0AD6
:100150000002A1017508150026FF009540090181E4
:1001600002954009029102C0120100020000002025
:10017000C016800400010102000101C13601C03631
:100180000000000104050607252423222120112454
:100190001FBECFEFDAE0DEBFCDBF11E0A0E0B1E0DF
:1001A000EAECF9E002C005900D92A232B107D9F74E
:1001B00021E0A2E2B1E001C01D92A736B207E1F74B
:1001C00002D001C41DCFCF93DF93CDB7DEB72D97FB
:1001D0000FB6F894DEBF0FBECDBF1D861C861B86F2
:1001E000CE0101968BD380E880936100109261006C
:1001F000DCD0F2D08823E9F32FEF83ED90E3215098
:1002000080409040E1F700C0000014BC85E085BD4F
:1002100081E080936E0014B817B81AB810BA8FEF47
:1002200085B988B98BB98EEF81BB412C512C4DEC2F
:10023000242E33243394809122018823E1F31092F9
:100240002201ABEAA09327012092280180E0682ECA
:1002500081E0782E98E0892E91E0992E20E1A22E5F
:1002600021E0B22E38E1C32E31E0D32EE12CF12C67
:1002700083B12E2D90E00E2C02C0959587950A949F
:10028000E2F7D601EC91F0E0E95DFE4F80FF02C09D
:10029000128201C0328286B190E0022E02C0959592
:1002A00087950A94E2F7D501EC91F0E0E95DFE4F05
:1002B00080FF02C0128201C0328289B190E0022E1A
:1002C00002C0959587950A94E2F7D401EC91F0E08D
:1002D000E95DFE4F80FF02C0128201C03282E1144C
:1002E000F104A9F40091000110E00E5F1F4F9E0180
:1002F000255F3F4FAE01435F5F4FBE016F5F7F4F92
:1003000080E006D3F801E95DFE4F808311C08FB114
:1003100090E002C0959587952A95E2F7D301EC917C
:10032000F0E0E95DFE4F80FF02C0128201C0328220
:10033000BFEFEB1AFB0A2FEF621A720A8FEF881ACF
:10034000980A9FEFA91AB90AAFEFCA1ADA0AB8E0F9
:10035000EB16F10409F08CCFE9E5F1E0119221E010
:10036000E536F207D9F7509265014092660162E3E3
:1003700087E291E034D08FEF481A580A5CCF1F9281
:100380000F920FB60F9211248F931092230181E0E8
:10039000809322018F910F900FBE0F901F901895A0
:1003A0008091E80080FFFCCF089581E08093D70022
:1003B00080EA8093D80082E189BD09B400FEFDCFB8
:1003C00080E98093D8001092E000109226018CE022
:1003D0008093E20078940895809126010895FC01AD
:1003E00080912601811102C08FEF08958FB7F89494
:1003F0006093240191E09093E9002091E80025FDAD
:100400000DC08FBF80912401882309F4CDC0809155
:100410002601882349F38FB7F894EDCF908190930C
:10042000F10091819093F10092819093F10093817A
:100430009093F10094819093F10095819093F10055
:1004400096819093F10097819093F100908590931D
:10045000F10091859093F10092859093F10093853E
:100460009093F10094859093F10095859093F1001D
:1004700096859093F10097859093F10090899093E1
:10048000F10091899093F10092899093F100938902
:100490009093F10094899093F10095899093F100E5
:1004A00096899093F10097899093F100908D9093A5
:1004B000F100918D9093F100928D9093F100938DC6
:1004C0009093F100948D9093F100958D9093F100AD
:1004D000968D9093F100978D9093F10090A1909359
:1004E000F10091A19093F10092A19093F10093A15A
:1004F0009093F10094A19093F10095A19093F10055
:1005000096A19093F10097A19093F10090A59093FC
:10051000F10091A59093F10092A59093F10093A51D
:100520009093F10094A59093F10095A59093F1001C
:1005300096A59093F10097A59093F10090A99093C0
:10054000F10091A99093F10092A99093F10093A9E1
:100550009093F10094A99093F10095A99093F100E4
:1005600096A99093F10097A99093F10090AD909384
:10057000F10091AD9093F10092AD9093F10093ADA5
:100580009093F10094AD9093F10095AD9093F100AC
:1005900096AD9093F10097AD9093F1009AE390930C
:1005A000E8008FBF80E4089580E008951F920F92C5
:1005B0000FB60F9211248F939F938091E1001092B8
:1005C000E10083FF0FC01092E90091E09093EB00EF
:1005D0001092EC0092E29093ED0098E09093F0007E
:1005E0001092260182FF12C080912601882371F0AB
:1005F00080912501882319F08150809325018091F5
:100600002401882319F08150809324019F918F91B8
:100610000F900FBE0F901F9018951F920F920FB65C
:100620000F921124EF92FF921F932F933F934F93BA
:100630005F936F937F938F939F93AF93BF93CF936A
:10064000DF93EF93FF931092E9008091E80083FF1E
:1006500015C11091F1008091F100E090F1009091AE
:10066000F100F12CF92AC091F1009091F100D0E055
:10067000D92B2091F1006091F10092EF9093E80066
:10068000863009F049C08CEA90E04DED50E0FC0165
:10069000A591B491EA16FB06D9F4FC013296A59116
:1006A000B491CA17DB07A1F4FC013496459154912B
:1006B000FC013696849130E0362B2F3F310519F03E
:1006C00010F02FEF30E0281708F4822F3EEF0CC017
:1006D000079648175907D9F6D1C0490F511D891BF4
:1006E0003093E8008823A9F09091E800292F257025
:1006F000D9F392FDC6C0982F813208F090E2FA013A
:10070000292F222351F364916093F10021503196F7
:10071000F8CF903249F3B5C0853049F48EEF80931D
:10072000E8003EDE8E2D80688093E300AAC0893009
:1007300039F511116AC0E09226018EEF8093E8002E
:1007400041E08AE791E04093E9009C012F5F3F4F31
:10075000FC0154915093EB00552359F0F901249179
:100760002093EC009C012D5F3F4F3196E491E09384
:10077000ED004F5F453011F0C901E5CF8EE140C07B
:10078000883049F4103809F040C00ADE8091260113
:100790008093F1006FC0811113C002DE123851F452
:1007A000C093E9008091EB0085FB882780F91092C7
:1007B000E90001C080E08093F1001092F1005AC07E
:1007C000982F9D7F913009F51230F9F4EF2809F048
:1007D00055C0CF779FEF9C0F943008F04FC09EEF2D
:1007E0009093E800C093E900833009F447C089E1A1
:1007F0008093EB0081E090E001C0880FCA95EAF792
:100800008093EA001092EA003CC0CD2BB9F5113A72
:10081000F1F4813099F580E43EEF9091E800292FC2
:100820002570D9F392FD2DC0982F813208F090E207
:10083000292F222321F01092F1002150FACF891B99
:100840003093E8008111E9CF903239F31AC01132A8
:10085000A9F4893099F480E42BEF982F813208F0C5
:1008600090E23091E80032FFFCCF2093E800891B32
:10087000A1F796DD8EEF8093E80003C081E28093BC
:10088000EB00FF91EF91DF91CF91BF91AF919F91DD
:100890008F917F916F915F914F913F912F911F9118
:1008A000FF90EF900F900FBE0F901F90189596E855
:1008B00090937A00982F9072906890937B008F713C
:1008C00090912001892B80937C0086EC80937A00A4
:1008D00080917A0086FDFCCF80917800209179008C
:1008E00090E0922B08958C3030F4E82FF0E0EE5732
:1008F000FE4F8491DCCF80E090E008959C01265F5C
:100900003F4FFC011192CF01E217F307D1F7089591
:10091000CF92DF92EF92FF920F931F93CF93DF93CB
:100920007B01EA0189019881FB01E90FF11D9081AA
:10093000F90120813181291B31093183208398817C
:100940006B01C90ED11CCFDF97FD03969595879556
:1009500095958795F60180838881F701E80FF11D51
:100960002081F80180819181820F911D9183808384
:1009700088818F5F8A3010F4888301C01882F80163
:10098000808191816AE070E00AD0862FDF91CF915B
:100990001F910F91FF90EF90DF90CF900895AA1BC9
:1009A000BB1B51E107C0AA1FBB1FA617B70710F05A
:1009B000A61BB70B881F991F5A95A9F7809590958C
:0A09C000BC01CD010895F894FFCFAB
:1009CA001716FFFF15141312050607080C0B0D0E58
:1009DA00FFFFFFFFFFFF090A000102030F101104C6
:0209EA004000CB
:00000001FF
